:020000040000FA
:0400000049EFFFF0D5
:020000040001F9
:10FE8A00D58E1200D59E1200000185EFFFF077ECA7
:10FE9A00FFF0ACECFFF06BECFFF055ECFFF012005A
:10FEAA004C0ED66E8B0ED46E000ED36E0E01339BA3
:10FEBA00860ED56E12000E0133BB66EFFFF069EFB6
:10FECA00FFF0010E6AEFFFF0000E1200620E0E0143
:10FEDA00436F000E456F000E476F060E496F000E06
:10FEEA00486F1200000E0E014C6F000E4D6F000E8F
:10FEFA004E6F000E4F6F000E506F000E516F1200C2
:10FF0A004CECFFF045ECFFF060ECFFF00009D8B4D0
:10FF1A0091EFFFF093EFFFF089EFFFF047ECFFF06E
:10FF2A007CB29AEFFFF09DEFFFF0010E9EEFFFF01B
:10FF3A00000EFF0A016E01467C500118FD0B0118E4
:10FF4A007C6E0E01339B87EFFFF000EF00F0000E8E
:10FF5A007D6E020E7C6E000E796E000E7E6E000EB5
:10FF6A007A6E000E7F6E800E7B6E000E806E856844
:10FF7A0086688168DF0E876E82680F0E886E8368D6
:10FF8A00FD0E846EFD0E0E01A76F9A69AF69BC69FA
:10FF9A00B4699269000EA66F000EB36F000EAE6FC1
:10FFAA00000E996F000EBB6F000E916F000EA16FCD
:10FFBA00000EC06F000EAD6F000EB26F000E906F94
:10FFCA00000EBA6F000E986F000EBF6F000EA06F82
:10FFDA00000EA56F8F6997699F69A469AC69B169B9
:10FFEA00B969BE698E6996699E69A369AB69B06988
:06FFFA00B869BD691200A8
:020000040020DA
:10000000FF0FFF0FFF0FFF0FFF0FFF0FFF0FFF0F80
:020000040030CA
:0C000000ECFFFFFF9FFFFFFFFFFFFFFF73
:00000001FF
